:1001750012013412016075E13075E1301201CF8052
:01018500F881
:10013400758920758DFD758BFDD28ED299C29FD2A3
:060144009ED2AFD2AC22F6
:1000FF00E4FEEEC39F5011C2AC74132EF8E6F599CF
:0A010F003099FDC2990E80EAD2ACCF
:0101190022C3
:0601DA0013092210400091
:0501950012019AD29155
:07019A00000000000000223C
:0F018600D290D29112019AC29012019AC2912284
:0C01A100C290C291120195D29002019A06
:0B01B900EF24FF9290120195C29122EA
:10014A007F14D290120195309007DFFB1201A18033
:06015A00F6C29102019AB9
:0C008900AC071201867FA2120095AF04A4
:10009500E4FEEF30E704D2908002C290EF25E0FF46
:0E00A500D29112019AC2910EBE08E702014AE2
:10011A00D290E4FED291EF25E0FFA290E4334207A9
:09012A00C29112019A0EBE08EB0D
:0101330022A9
:0B01C400120089AF051200950201A196
:060047008B288A29892A9A
:10004D001200891201867FA3120095E4FCECC39D7A
:10005D00502212011AAB28AA29A92A8C8275830075
:10006D00EF1200DDED14FFECC39F5005E4FF12010C
:0C007D00B90C80D97F011201B90201A169
:100003007B007A0079217D077F02120047E52154A6
:100013007FF52BE522547FF52CE523543FF52DE5A1
:1000230024543FF52EE526541FF52F8527308530C0
:1000330013F514852E15852D16852C17852B187F02
:04004300060200FFB2
:0B01CF00120003E52B70031200032256
:1000B300AD2B7F081201C4AD2C7F071201C4AD2DF7
:1000C3007F051201C4AD2E7F041201C4AD2F7F033F
:0A00D3001201C4AD307F020201C427
:10016000E4FFEF9001DA93FE742B2FF8A6060FBF81
:0501700006F00200B3DF
:030000000201AD4D
:0C01AD00787FE4F6D8FD75813002017502
:1000DD00F8BB010DE58229F582E5833AF583E8F059
:1000ED00225006E92582C8F622BBFE05E92582C805
:0200FD00F222ED
:00000001FF
